{
  "contractName": "AppointmentBooking",
  "abi": [
    {
      "constant": true,
      "inputs": [
        {
          "internalType": "uint256",
          "name": "",
          "type": "uint256"
        }
      ],
      "name": "appointments",
      "outputs": [
        {
          "internalType": "uint256",
          "name": "id",
          "type": "uint256"
        },
        {
          "internalType": "address",
          "name": "provider",
          "type": "address"
        },
        {
          "internalType": "uint256",
          "name": "startTime",
          "type": "uint256"
        },
        {
          "internalType": "uint256",
          "name": "duration",
          "type": "uint256"
        },
        {
          "internalType": "bool",
          "name": "isBooked",
          "type": "bool"
        },
        {
          "internalType": "address",
          "name": "booker",
          "type": "address"
        }
      ],
      "payable": false,
      "stateMutability": "view",
      "type": "function"
    },
    {
      "constant": true,
      "inputs": [],
      "name": "nextId",
      "outputs": [
        {
          "internalType": "uint256",
          "name": "",
          "type": "uint256"
        }
      ],
      "payable": false,
      "stateMutability": "view",
      "type": "function"
    },
    {
      "constant": false,
      "inputs": [
        {
          "internalType": "address",
          "name": "_provider",
          "type": "address"
        },
        {
          "internalType": "uint256",
          "name": "_startTime",
          "type": "uint256"
        },
        {
          "internalType": "uint256",
          "name": "_duration",
          "type": "uint256"
        }
      ],
      "name": "createAppointment",
      "outputs": [],
      "payable": false,
      "stateMutability": "nonpayable",
      "type": "function"
    },
    {
      "constant": false,
      "inputs": [
        {
          "internalType": "uint256",
          "name": "id",
          "type": "uint256"
        }
      ],
      "name": "bookAppointment",
      "outputs": [],
      "payable": false,
      "stateMutability": "nonpayable",
      "type": "function"
    },
    {
      "constant": false,
      "inputs": [
        {
          "internalType": "uint256",
          "name": "id",
          "type": "uint256"
        }
      ],
      "name": "cancelBooking",
      "outputs": [],
      "payable": false,
      "stateMutability": "nonpayable",
      "type": "function"
    }
  ],
  "bytecode": "0x608060405234801561001057600080fd5b5061077d806100206000396000f3fe608060405234801561001057600080fd5b50600436106100575760003560e01c80630dca825e1461005c57806312dc90131461008a57806361b8ce8c1461014b578063c645e73914610169578063ffac60d614610197575b600080fd5b6100886004803603602081101561007257600080fd5b81019080803590602001909291905050506101ef565b005b6100b6600480360360208110156100a057600080fd5b8101908080359060200190929190505050610391565b604051808781526020018673ffffffffffffffffffffffffffffffffffffffff1673ffffffffffffffffffffffffffffffffffffffff168152602001858152602001848152602001831515151581526020018273ffffffffffffffffffffffffffffffffffffffff1673ffffffffffffffffffffffffffffffffffffffff168152602001965050505050505060405180910390f35b610153610427565b6040518082815260200191505060405180910390f35b6101956004803603602081101561017f57600080fd5b810190808035906020019092919050505061042d565b005b6101ed600480360360608110156101ad57600080fd5b81019080803573ffffffffffffffffffffffffffffffffffffffff16906020019092919080359060200190929190803590602001909291905050506105ab565b005b6001548110610266576040517f08c379a000000000000000000000000000000000000000000000000000000000815260040180806020018281038252601b8152602001807f4170706f696e746d656e7420646f6573206e6f742065786973742e000000000081525060200191505060405180910390fd5b600080828154811061027457fe5b906000526020600020906005020190503373ffffffffffffffffffffffffffffffffffffffff168160040160019054906101000a900473ffffffffffffffffffffffffffffffffffffffff1673ffffffffffffffffffffffffffffffffffffffff161461032c576040517f08c379a000000000000000000000000000000000000000000000000000000000815260040180806020018281038252602b81526020018061071e602b913960400191505060405180910390fd5b60008160040160006101000a81548160ff02191690831515021790555060008160040160016101000a81548173ffffffffffffffffffffffffffffffffffffffff021916908373ffffffffffffffffffffffffffffffffffffffff1602179055505050565b6000818154811061039e57fe5b90600052602060002090600502016000915090508060000154908060010160009054906101000a900473ffffffffffffffffffffffffffffffffffffffff16908060020154908060030154908060040160009054906101000a900460ff16908060040160019054906101000a900473ffffffffffffffffffffffffffffffffffffffff16905086565b60015481565b60015481106104a4576040517f08c379a000000000000000000000000000000000000000000000000000000000815260040180806020018281038252601b8152602001807f4170706f696e746d656e7420646f6573206e6f742065786973742e000000000081525060200191505060405180910390fd5b60008082815481106104b257fe5b906000526020600020906005020190508060040160009054906101000a900460ff1615610547576040517f08c379a000000000000000000000000000000000000000000000000000000000815260040180806020018281038252601b8152602001807f4170706f696e746d656e7420616c726561647920626f6f6b65642e000000000081525060200191505060405180910390fd5b60018160040160006101000a81548160ff021916908315150217905550338160040160016101000a81548173ffffffffffffffffffffffffffffffffffffffff021916908373ffffffffffffffffffffffffffffffffffffffff1602179055505050565b60006040518060c0016040528060015481526020018573ffffffffffffffffffffffffffffffffffffffff168152602001848152602001838152602001600015158152602001600073ffffffffffffffffffffffffffffffffffffffff16815250908060018154018082558091505090600182039060005260206000209060050201600090919290919091506000820151816000015560208201518160010160006101000a81548173ffffffffffffffffffffffffffffffffffffffff021916908373ffffffffffffffffffffffffffffffffffffffff160217905550604082015181600201556060820151816003015560808201518160040160006101000a81548160ff02191690831515021790555060a08201518160040160016101000a81548173ffffffffffffffffffffffffffffffffffffffff021916908373ffffffffffffffffffffffffffffffffffffffff16021790555050505060016000815480929190600101919050555050505056fe4f6e6c792074686520626f6f6b65722063616e2063616e63656c20746865206170706f696e746d656e742ea265627a7a723158204d55fa3e41ff213918da3c280943e4012f61a2496a341548b8ae4fba979cbfe564736f6c63430005100032",
  "source": "pragma solidity ^0.5.16;\r\n\r\ncontract AppointmentBooking {\r\n    struct Appointment {\r\n        uint id;\r\n        address provider;\r\n        uint startTime;\r\n        uint duration;\r\n        bool isBooked;\r\n        address booker;\r\n    }\r\n\r\n    Appointment[] public appointments;\r\n    uint public nextId;\r\n\r\n    function createAppointment(address _provider, uint _startTime, uint _duration) public {\r\n        appointments.push(Appointment(nextId, _provider, _startTime, _duration, false, address(0)));\r\n        nextId++;\r\n    }\r\n\r\n    function bookAppointment(uint id) public {\r\n        require(id < nextId, \"Appointment does not exist.\");\r\n        Appointment storage appointment = appointments[id];\r\n        require(!appointment.isBooked, \"Appointment already booked.\");\r\n        appointment.isBooked = true;\r\n        appointment.booker = msg.sender;\r\n    }\r\n\r\n    function cancelBooking(uint id) public {\r\n        require(id < nextId, \"Appointment does not exist.\");\r\n        Appointment storage appointment = appointments[id];\r\n        require(appointment.booker == msg.sender, \"Only the booker can cancel the appointment.\");\r\n        appointment.isBooked = false;\r\n        appointment.booker = address(0);\r\n    }\r\n}\r\n",
  "sourcePath": "C:\\Users\\anica\\OneDrive\\Desktop\\DApp\\contracts\\AppointmentBooking.sol",
  "compiler": {
    "name": "solc",
    "version": "0.5.16+commit.9c3226ce.Emscripten.clang"
  },
  "schemaVersion": "3.4.16",
  "updatedAt": "2024-09-03T02:24:08.000Z",
  "devdoc": {
    "methods": {}
  },
  "userdoc": {
    "methods": {}
  }
}